{
  "_format": "hh-sol-artifact-1",
  "contractName": "CopyrightRegistry",
  "sourceName": "contracts/CopyrightRegistry.sol",
  "abi": [
    {
      "inputs": [
        {
          "internalType": "uint256",
          "name": "",
          "type": "uint256"
        }
      ],
      "name": "allCIDs",
      "outputs": [
        {
          "internalType": "string",
          "name": "",
          "type": "string"
        }
      ],
      "stateMutability": "view",
      "type": "function"
    },
    {
      "inputs": [],
      "name": "getAllRecords",
      "outputs": [
        {
          "components": [
            {
              "internalType": "string",
              "name": "cid",
              "type": "string"
            },
            {
              "internalType": "address",
              "name": "owner",
              "type": "address"
            },
            {
              "internalType": "uint256",
              "name": "timestamp",
              "type": "uint256"
            }
          ],
          "internalType": "struct CopyrightRegistry.Record[]",
          "name": "",
          "type": "tuple[]"
        }
      ],
      "stateMutability": "view",
      "type": "function"
    },
    {
      "inputs": [
        {
          "internalType": "string",
          "name": "",
          "type": "string"
        }
      ],
      "name": "records",
      "outputs": [
        {
          "internalType": "string",
          "name": "cid",
          "type": "string"
        },
        {
          "internalType": "address",
          "name": "owner",
          "type": "address"
        },
        {
          "internalType": "uint256",
          "name": "timestamp",
          "type": "uint256"
        }
      ],
      "stateMutability": "view",
      "type": "function"
    },
    {
      "inputs": [
        {
          "internalType": "string",
          "name": "cid",
          "type": "string"
        }
      ],
      "name": "storeRecord",
      "outputs": [],
      "stateMutability": "nonpayable",
      "type": "function"
    },
    {
      "inputs": [
        {
          "internalType": "string",
          "name": "cid",
          "type": "string"
        }
      ],
      "name": "verifyRecord",
      "outputs": [
        {
          "internalType": "address",
          "name": "",
          "type": "address"
        },
        {
          "internalType": "uint256",
          "name": "",
          "type": "uint256"
        }
      ],
      "stateMutability": "view",
      "type": "function"
    }
  ],
  "bytecode": "0x6080604052348015600f57600080fd5b506109d98061001f6000396000f3fe608060405234801561001057600080fd5b50600436106100575760003560e01c8063541e771d1461005c57806376d91d0814610087578063a7f9fe721461009c578063c40e5824146100b1578063ece19468146100e3575b600080fd5b61006f61006a3660046105c2565b610103565b60405161007e939291906106cb565b60405180910390f35b61009a6100953660046105c2565b6101c2565b005b6100a46102f6565b60405161007e91906106f9565b6100c46100bf3660046105c2565b6104a7565b604080516001600160a01b03909316835260208301919091520161007e565b6100f66100f1366004610787565b610500565b60405161007e91906107a0565b8051602081830181018051600082529282019190930120915280548190610129906107ba565b80601f0160208091040260200160405190810160405280929190818152602001828054610155906107ba565b80156101a25780601f10610177576101008083540402835291602001916101a2565b820191906000526020600020905b81548152906001019060200180831161018557829003601f168201915b50505050600183015460029093015491926001600160a01b031691905083565b60006001600160a01b03166000826040516101dd91906107ee565b908152604051908190036020019020600101546001600160a01b03161461023f5760405162461bcd60e51b8152602060048201526012602482015271105b1c9958591e481c9959da5cdd195c995960721b604482015260640160405180910390fd5b60408051606081018252828152336020820152428183015290516000906102679084906107ee565b908152604051908190036020019020815181906102849082610859565b506020820151600182810180546001600160a01b0319166001600160a01b0390931692909217909155604090920151600290910155805480820182556000919091527fb10e2d527612073b26eecdfd717e6a320cf44b4afac2b0732d9fcbe2b7fa0cf6016102f28282610859565b5050565b60015460609060009067ffffffffffffffff811115610317576103176105ac565b60405190808252806020026020018201604052801561037557816020015b61036260405180606001604052806060815260200160006001600160a01b03168152602001600081525090565b8152602001906001900390816103355790505b50905060005b6001548110156104a15760006001828154811061039a5761039a610918565b906000526020600020016040516103b1919061092e565b90815260200160405180910390206040518060600160405290816000820180546103da906107ba565b80601f0160208091040260200160405190810160405280929190818152602001828054610406906107ba565b80156104535780601f1061042857610100808354040283529160200191610453565b820191906000526020600020905b81548152906001019060200180831161043657829003601f168201915b505050918352505060018201546001600160a01b03166020820152600290910154604090910152825183908390811061048e5761048e610918565b602090810291909101015260010161037b565b50919050565b6000806000836040516104ba91906107ee565b908152604051908190036020018120600101546001600160a01b0316906000906104e59086906107ee565b90815260200160405180910390206002015491509150915091565b6001818154811061051057600080fd5b90600052602060002001600091509050805461052b906107ba565b80601f0160208091040260200160405190810160405280929190818152602001828054610557906107ba565b80156105a45780601f10610579576101008083540402835291602001916105a4565b820191906000526020600020905b81548152906001019060200180831161058757829003601f168201915b505050505081565b634e487b7160e01b600052604160045260246000fd5b6000602082840312156105d457600080fd5b813567ffffffffffffffff8111156105eb57600080fd5b8201601f810184136105fc57600080fd5b803567ffffffffffffffff811115610616576106166105ac565b604051601f8201601f19908116603f0116810167ffffffffffffffff81118282101715610645576106456105ac565b60405281815282820160200186101561065d57600080fd5b81602084016020830137600091810160200191909152949350505050565b60005b8381101561069657818101518382015260200161067e565b50506000910152565b600081518084526106b781602086016020860161067b565b601f01601f19169290920160200192915050565b6060815260006106de606083018661069f565b6001600160a01b039490941660208301525060400152919050565b6000602082016020835280845180835260408501915060408160051b86010192506020860160005b8281101561077b57603f198786030184528151805160608752610747606088018261069f565b6020838101516001600160a01b03168982015260409384015193909801929092525094938401939190910190600101610721565b50929695505050505050565b60006020828403121561079957600080fd5b5035919050565b6020815260006107b3602083018461069f565b9392505050565b600181811c908216806107ce57607f821691505b6020821081036104a157634e487b7160e01b600052602260045260246000fd5b6000825161080081846020870161067b565b9190910192915050565b601f82111561085457806000526020600020601f840160051c810160208510156108315750805b601f840160051c820191505b81811015610851576000815560010161083d565b50505b505050565b815167ffffffffffffffff811115610873576108736105ac565b6108878161088184546107ba565b8461080a565b6020601f8211600181146108bb57600083156108a35750848201515b600019600385901b1c1916600184901b178455610851565b600084815260208120601f198516915b828110156108eb57878501518255602094850194600190920191016108cb565b50848210156109095786840151600019600387901b60f8161c191681555b50505050600190811b01905550565b634e487b7160e01b600052603260045260246000fd5b600080835461093c816107ba565b600182168015610953576001811461096857610998565b60ff1983168652811515820286019350610998565b86600052602060002060005b8381101561099057815488820152600190910190602001610974565b505081860193505b50919594505050505056fea26469706673582212208a4e92c39a0cd59bb289447bdbae202d9e8f64c4e0baf5acd5261ebbcb5a366d64736f6c634300081c0033",
  "linkReferences": {},
  "deployedLinkReferences": {}
}